{"abi":[{"type":"constructor","inputs":[{"name":"playerAddress","type":"address","internalType":"address"}],"stateMutability":"payable"},{"type":"function","name":"PLAYER","inputs":[],"outputs":[{"name":"","type":"address","internalType":"address"}],"stateMutability":"view"},{"type":"function","name":"isSolved","inputs":[],"outputs":[{"name":"","type":"bool","internalType":"bool"}],"stateMutability":"view"},{"type":"function","name":"relayer","inputs":[],"outputs":[{"name":"","type":"address","internalType":"contract BifrostRelayer"}],"stateMutability":"view"},{"type":"function","name":"singularity","inputs":[],"outputs":[{"name":"","type":"address","internalType":"contract BifrostSingularity"}],"stateMutability":"view"},{"type":"function","name":"singularityNode","inputs":[],"outputs":[{"name":"","type":"address","internalType":"address"}],"stateMutability":"view"},{"type":"function","name":"vault","inputs":[],"outputs":[{"name":"","type":"address","internalType":"contract BifrostVault"}],"stateMutability":"view"}],"bytecode":{"object":"0x60a0604090808252602081612aac803803809161001c8285610215565b83398101031261019957516001600160a01b03808216820361019957600380547367dc4e080711aea6cf6ee22d2b3553d5517d09606001600160a01b0319918216811790925592678ac7230489e80000919034678ac7230489e7ffff19016101c55760805284516001600160401b039161089b808301848111848210176101a757889284926103dc84398152600a60208201520301905ff080156101bb57831680855f5416175f558551906110c2808301838110858211176101a7576020928492610c77843981520301905ff080156101bb57831680856001541617600155855191610d739081840190848210908211176101a7576020928492611d3984398152030191f0801561019d578116809260025416176002556001541690813b15610199575f916024839285519485938492636817031b60e01b845260048401525af1801561018f5761017f575b50516101a3908161023982396080518161013e0152f35b5f61018991610215565b5f610168565b82513d5f823e3d90fd5b5f80fd5b83513d5f823e3d90fd5b634e487b7160e01b5f52604160045260245ffd5b85513d5f823e3d90fd5b855162461bcd60e51b8152602060048201526024808201527f42726964676520636f72652069676e6974696f6e2072657175697265732031306044820152630408aa8960e31b6064820152608490fd5b601f909101601f19168101906001600160401b038211908210176101a75760405256fe60806040908082526004361015610014575f80fd5b5f3560e01c9081630236ca741461012c5750806364d98f6e146101025780638406c079146100da578063a5dca464146100b3578063d84d6a9f1461008b5763fbfa77cf14610060575f80fd5b34610087575f3660031901126100875760025490516001600160a01b039091168152602090f35b5f80fd5b5034610087575f3660031901126100875760035490516001600160a01b039091168152602090f35b5034610087575f366003190112610087575f5490516001600160a01b039091168152602090f35b5034610087575f3660031901126100875760015490516001600160a01b039091168152602090f35b5034610087575f3660031901126100875760025490516001600160a01b0390911631158152602090f35b34610087575f366003190112610087577f00000000000000000000000000000000000000000000000000000000000000006001600160a01b03168152602090f3fea2646970667358221220dbd9feb0461dd2eb9a2e6bad809182406b6e1479f94dd2c7814ff82ab6c5511964736f6c634300081e0033608034608657601f61089b38819003918201601f19168301916001600160401b03831184841017608a57808492604094855283398101031260865780516001600160a01b0381169190829003608657602001516001600160601b038116810360865760a01b6001600160a01b031916175f556113376001556040516107fc908161009f8239f35b5f80fd5b634e487b7160e01b5f52604160045260245ffdfe608060408181526004918236101561003d575b5050361561003b5763dead000063ffff00005f3560e01c161461003157005b356001556024355f555b005b5f3560e01c9081623a8531146104f7575080632c123954146104cd5780632c168927146104a5578063404a4edb1461047a5780634b7406441461043f5780638160f0b51461041f5780639ed205b314610382578063b1a47e2c14610313578063d32e06d114610268578063d84d6a9f14610241578063eeee993114610212578063f22e962d14610121578063f43321ec146101035763fa9940b7146100e25780610012565b346100ff575f3660031901126100ff576020906002549051908152f35b5f80fd5b50346100ff575f3660031901126100ff576020906001549051908152f35b5090346100ff57816003193601126100ff57803560243591815f5260036020526002845f200154156101d6575f5160206107a75f395f51905f5260c0846080878681516020810190858252428482015283815261017f6060826105fc565b519020905f5260036020526001825f208281541881550190831c8154189055805192835233602084015282015260116080820152701153951493d41657d49150531251d39151607a1b60a0820152426060820152a1005b606490602085519162461bcd60e51b8352820152601660248201527513585b9a599bdb19081d5b9a5b9a5d1a585b1a5e995960521b6044820152fd5b50346100ff5760603660031901126100ff57610238602092604435906024359035610633565b90519015158152f35b50346100ff575f3660031901126100ff575f5490516001600160a01b039091168152602090f35b50346100ff57806003193601126100ff5760243591815160209060208101906a5155414e54415f434f524560a81b825285602b820152602b81526102ad604b826105fc565b519020925f915b8183106102e657505050351490816102d9575b506102ce57005b33600160a01b175f55005b620420699150145f6102c7565b909193600190835183810191825286858201528481526103076060826105fc565b519020940191906102b4565b82346100ff575f3660031901126100ff576002545f19811461036f57600101600255600154906001820180921161035c57604260ff8306806001551461035557005b6043600155005b601190634e487b7160e01b5f525260245ffd5b601182634e487b7160e01b5f525260245ffd5b5090346100ff57816003193601126100ff576020916401000003d01980806103ab816001610721565b6103b6826001610721565b95350993602435098160078186818180090908828280091493846103f0575b505050816103e6575b519015158152f35b60426001556103de565b7ffd3dc529c6eb60fb9d166034cf3c1a5a72324aa9dfd3428a56d7e1ce0179fd9b9394500914905f80806103d5565b50346100ff575f3660031901126100ff576020905f5460a01c9051908152f35b5090346100ff5760203660031901126100ff57356001600160a01b03811691908290036100ff576020915f5260058252805f20549051908152f35b50346100ff5760203660031901126100ff5781602092355f52825260ff815f20541690519015158152f35b5090346100ff57816003193601126100ff57355f5260036020526002602435915f2001555f80f35b50346100ff5760203660031901126100ff57602091355f52600382526002815f2001549051908152f35b919050346100ff57806003193601126100ff5782356001600160a01b038116908181036100ff576024359360648510156105b1575f5160206107a75f395f51905f5260c08660808787878251602081019142835260018060601b03199060601b16848201526034815261056b6054826105fc565b5190208418815f526005602052825f205581519384526020840152820152600f60808201526e10d3d394d15394d554d7d4d2125195608a1b60a0820152426060820152a1005b62461bcd60e51b8152602086820152602160248201527f57656967687420657863656564732067616c6163746963207468726573686f6c6044820152601960fa1b6064820152608490fd5b601f909101601f19168101906001600160401b0382119082101761061f57604052565b634e487b7160e01b5f52604160045260245ffd5b919091805f5260206004815260409260ff845f2054166107185761065d6401000003d01982610721565b90845195848752601b84880152858701528060608701525f8052825f6080600198895afa1561070e57855f51925f5460a01c156106f557811491826106ea575b50506106d4575f546001600160a01b039182169116146106bf57505050505f90565b6004915f52525f208160ff1982541617905590565b506004915f52525f208160ff1982541617905590565b14159050855f61069d565b505050506004915f52525f208160ff1982541617905590565b84513d5f823e3d90fd5b50505050505f90565b5f9291839181600162042069630deadead60dc1b01831461079d575b861561074b575b5050505050565b939291805b610781575050600191925011610779575b8215610771575b80808080610744565b91505f610768565b5f9250610761565b8181840494818787098203900894939092908302900380610750565b6001965061073d56feb1f47fc57fa907e08ae5d67305bff71f8c49f0a422ebfdcb6c4e2f4473db07f7a26469706673582212200812845d6f5243787f9b803a9bd84528f8b6883a85498bd150e48a0bcc426a6664736f6c634300081e003360a03461009357601f6110c238819003918201601f19168301916001600160401b038311848410176100975780849260209460405283398101031261009357516001600160a01b0381169081900361009357670de0b6b3a764000060015561053960025560805260405161101690816100ac82396080518181816101b2015281816104ab015281816106d201526107100152f35b5f80fd5b634e487b7160e01b5f52604160045260245ffdfe60806040526004361015610011575f80fd5b5f3560e01c80630622fd5d1461013457806311c14bd51461012f578063172cea4b1461012a5780632dff692d146101255780635602085b1461012057806356bf49db1461011b5780635795536a146101165780635bae9619146101115780636817031b1461010c5780636fcdb877146101075780639eb62cf014610102578063a5dca464146100fd578063b056109b146100f8578063b6d6c6e9146100f3578063ba092c7d146100ee578063c3944b4e146100e9578063e2c81737146100e45763fbfa77cf146100df575f80fd5b610925565b6108f4565b61088a565b610825565b6107ea565b61073f565b6106fb565b61068b565b6105e3565b610567565b61054a565b61052d565b61047d565b610436565b61040c565b6103c4565b61017d565b61014e565b6001600160a01b0381160361014a57565b5f80fd5b3461014a57602036600319011261014a57602061017560043561017081610139565b6109ab565b604051908152f35b3461014a57608036600319011261014a57600480359060643561019f81610139565b604051638160f0b560e01b8152602092907f00000000000000000000000000000000000000000000000000000000000000006001600160a01b03169084818481855afa801561037d57610203915f91610382575b506001600160601b031615610d08565b61021761021086846103ff565b5415610d6e565b83604051809263eeee993160e01b8252815f8161024d6044356024358d8b85016040919493926060820195825260208201520152565b03925af191821561037d575f516020610fc15f395f51905f52946102d3946102c29488945f91610350575b50156102d8575050600261028c83836103ff565b555b6102a56105396102a060015442610e78565b610e90565b6102bb6102b33360056103af565b918254610e9a565b90556103ff565b546040519081529081906020820190565b0390a2005b60026102e485856103ff565b54036102f2575b505061028e565b5f809161034993600161030588886103ff565b556040516386ed759d60e01b91810191825260248101889052839061033781604481015b03601f198101835282610960565b51925af1610343610dde565b50610e1c565b5f806102eb565b6103709150833d8511610376575b6103688183610960565b810190610dc6565b5f610278565b503d61035e565b610cfd565b6103a29150863d88116103a8575b61039a8183610960565b810190610cde565b5f6101f3565b503d610390565b9060018060a01b03165f5260205260405f2090565b3461014a57602036600319011261014a576004356103e181610139565b60018060a01b03165f526006602052602060405f2054604051908152f35b905f5260205260405f2090565b3461014a57602036600319011261014a576004355f526004602052602060405f2054604051908152f35b3461014a57604036600319011261014a5760043561045381610139565b60018060a01b03165f52600360205260405f206024355f52602052602060405f2054604051908152f35b3461014a57602036600319011261014a5760405163d84d6a9f60e01b81526001600160a01b036020826004817f000000000000000000000000000000000000000000000000000000000000000085165afa801561037d575f906104f0575b6104e89250163314610ea7565b600435600255005b506020823d602011610525575b8161050a60209383610960565b8101031261014a576104e8915161052081610139565b6104db565b3d91506104fd565b3461014a575f36600319011261014a576020600254604051908152f35b3461014a575f36600319011261014a576020600154604051908152f35b3461014a57602036600319011261014a5760043561058481610139565b5f54906001600160a01b03908183166105aa576001600160a01b03199092169116175f55005b60405162461bcd60e51b815260206004820152601160248201527015985d5b1d08185b1c9958591e481cd95d607a1b6044820152606490fd5b3461014a57602036600319011261014a5760043561060081610139565b6001600160a01b0381165f9081526005602052604090205460015410156106345761063160025443189160066103af565b55005b60405162461bcd60e51b815260206004820152602960248201527f496e73756666696369656e74207265736f6e616e636520666f7220666565206360448201526837b63632b1ba34b7b760b91b6064820152608490fd5b3461014a57606036600319011261014a576004356001600160e01b03198116810361014a5763ffff0000165f526024356004526044356024525f8060448160018060a01b037f0000000000000000000000000000000000000000000000000000000000000000165af41561014a57005b3461014a575f36600319011261014a576040517f00000000000000000000000000000000000000000000000000000000000000006001600160a01b03168152602090f35b3461014a57604036600319011261014a57600435805f526004602052600160405f2054036107aa5761077e61077861053960243561099c565b15610ef1565b5f61078a8260046103ff565b556040515f81525f516020610fc15f395f51905f529080602081016102d3565b60405162461bcd60e51b815260206004820152601860248201527709ee4c8cae440e6e8c2c4d2d8d2e8f240e8dede40d0d2ced60431b6044820152606490fd5b3461014a57602036600319011261014a5760043561080781610139565b60018060a01b03165f526005602052602060405f2054604051908152f35b5f36600319011261014a573415610845575f808080348180f11561037d57005b60405162461bcd60e51b815260206004820152601e60248201527f566f69642072656a656374696f6e3a20456d70747920646f6e6174696f6e00006044820152606490fd5b3461014a57602036600319011261014a575f546001600160a01b031633036108b457600435600155005b60405162461bcd60e51b815260206004820152601860248201527715985d5b1d08185d5d1a1bdc9a5d1e481c995c5d5a5c995960421b6044820152606490fd5b3461014a57604036600319011261014a57335f52600360205260405f206004355f5260205260243560405f20555f80f35b3461014a575f36600319011261014a575f546040516001600160a01b039091168152602090f35b634e487b7160e01b5f52604160045260245ffd5b601f909101601f19168101906001600160401b0382119082101761098357604052565b61094c565b634e487b7160e01b5f52601260045260245ffd5b81156109a6570690565b610988565b6001600160a01b0381165f908152600560205260409020548015610cd8575f91908290817f79be667ef9dcbbac55a06295ce870b07029bfcdb2dce28d959f2815b16f8179860017f483ada7726a3c4655da4fbfc0e1108a8fd17b448a68554199c47d08ffb10d4b8845b610a57575050505050506064610a5391604051610a4b8161032960208201948560149160018060601b03199060601b1681520190565b51902061099c565b1890565b600180861614610a83575b610a75926401000003d019929190610f35565b60019490941c939084610a15565b965f949385939291849190881580610cc8575b841580610cb7575b15901516610ab9575b50939890965093949391925090610a62565b95965094610a75945090506401000003d019808089800989098a096401000003d0198089800985096401000003d01980858009840914610c9c575b6401000003d01980808086800985096401000003d01990810390808c80098809086401000003d01980808088800987096401000003d01990810390808e80098a090860040909956401000003d01980808981808980098809096002096401000003d01990810390808a818e81808c80098b096401000003d01990810391819080098d0908096401000003d01990810390808080808c80098c0988096401000003d0190388086401000003d0198080808d80098d0989096401000003d019038908090808966401000003d01992838083818e81808c80098b096401000003d01990810391819080098d0908096401000003d0198080808b80098b098709600209096401000003d01990810393909283908b820390829081808c80098b090908916401000003d01991829081808b80098b0990096401000003d0190390080908966401000003d0198382086401000003d01992909190839081908187800990096401000003d0199081039080848009880908916401000003d01991828680096401000003d019908103929091829080096401000003d019908103918009080809869594935f610aa7565b806401000003d01980808680098609880914610af457610af4565b935097508095509481978993610a9e565b8b98509495508594849350610a96565b50505f90565b9081602091031261014a57516001600160601b038116810361014a5790565b6040513d5f823e3d90fd5b15610d0f57565b60405162461bcd60e51b815260206004820152603160248201527f44696d656e73696f6e616c2073746162696c69747920746f6f20686967682e2060448201527022b937b9b4b7b7103932b8bab4b932b21760791b6064820152608490fd5b15610d7557565b60405162461bcd60e51b8152602060048201526024808201527f50617261646f7820636f6c6c6973696f6e3a204f7264657220696e2070726f676044820152637265737360e01b6064820152608490fd5b9081602091031261014a5751801515810361014a5790565b3d15610e17573d906001600160401b0382116109835760405191610e0c601f8201601f191660200184610960565b82523d5f602084013e565b606090565b15610e2357565b60405162461bcd60e51b815260206004820152601960248201527821b0b6363130b1b5903932b532b1ba32b210313c903832b2b960391b6044820152606490fd5b634e487b7160e01b5f52601160045260245ffd5b81810292918115918404141715610e8b57565b610e64565b81156109a6570490565b91908201809211610e8b57565b15610eae57565b60405162461bcd60e51b815260206004820152601b60248201527a155b985d5d1a1bdc9a5e99590814dc1958dd1c985b0814da1a599d602a1b6044820152606490fd5b15610ef857565b60405162461bcd60e51b815260206004820152601560248201527424b73b30b634b21032b73a3937b83c90383937b7b360591b6044820152606490fd5b9390935f945f945f94801580610fb2575b15610f52575b50505050565b9195508296508080949550838194098180808080808c8009818180099d08818d810391818881039180090808600209926003098180808086600209810381858009089b6008098103938b820390089009089409600209905f808080610f4c565b5f9850889750879650610f4656fe5036c79f012f84d991100e11f09ed6fa90da778b05e6bd5a818479a26c64d753a26469706673582212209b0a77ebc34acfc376ed0aee9dfbd89fdf473d9f8a1abb952ec5c9609c3caad564736f6c634300081e003360a0601f610d7338819003918201601f19168301916001600160401b03831184841017607657808492602094604052833981010312607257516001600160a01b03811690819003607257608052604051610ce8908161008b823960805181818161029c015281816103bc0152610b8c0152f35b5f80fd5b634e487b7160e01b5f52604160045260245ffdfe608080604052600436101561001c575b50361561001a575f80fd5b005b5f905f3560e01c9081630eacf96f14610c0057508063314bc1ea14610b785780633e72b5e1146108545780634ec8033a1461080357806363f44968146103985780637446a10d146102cb5780638406c07914610286578063a868bdde14610269578063b6164be11461018e578063c874ba2e14610118578063cc3c0f06146100e95763f30daade0361000f57346100e65760203660031901126100e6576004356001600160a01b038116908190036100e4578160409160209352600383522054604051908152f35b505b80fd5b50346100e65760203660031901126100e65760ff60406020926004358152600284522054166040519015158152f35b5060203660031901126100e657600435341061014a57338152600360205260408120610145348254610c51565b905580f35b60405162461bcd60e51b815260206004820152601c60248201527b24b730b232b8bab0ba3290383932b6b4bab69034b73532b1ba34b7b760211b6044820152606490fd5b50346100e65760403660031901126100e6576004356024356001600160401b0380821161026557366023830112156102655781600401359081116102655736602482840101116102655760408111156102205761020f6040805183819460246020840197898952018484013781018783820152036020810184520182610c1a565b51902061021a575080f35b60015580f35b60405162461bcd60e51b815260206004820152601e60248201527f496e73756666696369656e742064696d656e73696f6e616c2070726f6f6600006044820152606490fd5b8380fd5b50346100e657806003193601126100e65760209054604051908152f35b50346100e657806003193601126100e6576040517f00000000000000000000000000000000000000000000000000000000000000006001600160a01b03168152602090f35b50346100e65760403660031901126100e65760248035916312b9b0a1600435818102918115918304141715610384576305f5e10090049181905b6005821061034e57505064e8d4a510009283810293818504149015171561033a5760206103328484610c51565b604051908152f35b634e487b7160e01b81526011600452602490fd5b9092600b9081810291818304149015171561037157600a60019104930190610305565b50634e487b7160e01b8252601160045290fd5b634e487b7160e01b82526011600452602482fd5b50346100e65760403660031901126100e6576004356024803560018060a01b0392837f00000000000000000000000000000000000000000000000000000000000000001660405194632977291960e21b86526020958681600481865afa80156107f857879189916107bc575b50600460405180948193633d0cc87b60e21b8352165afa80156107b1578790610783575b60429150036107245784849160405192838092632dff692d60e01b82528660048301525afa9081156107195786916106e8575b5060028103610680575067016345785d8a0000821161061a575b8085526002845260ff6040862054166105bf578490670de0b6b3a7640000831161054b575b818093819282526002875260408220600160ff19825416179055335af13d15610546573d6001600160401b03811161053357604051906104e3601f8201601f1916860183610c1a565b815284843d92013e5b156104f5578280f35b9060186064926040519262461bcd60e51b845260048401528201527711d85b1858dd1a58c8151c985b9cd9995c8811985a5b195960421b6044820152fd5b634e487b7160e01b855260416004528285fd5b6104ec565b905060ff811661055c57849061049a565b60405162461bcd60e51b8152600481018590526036818501527f486967682d76616c7565206d616e69666f6c64207265717569726573207461696044820152753616b0b634b3b736b2b73a1037b910313cb830b9b99760511b6064820152608490fd5b60405162461bcd60e51b815260048101859052602e818501527f456e74726f707920636f6e666c6963743a205472616e73616374696f6e20616c60448201526d3932b0b23c9039b430b93232b21760911b6064820152608490fd5b60405162461bcd60e51b8152600481018590526039818501527f417574686f72697a6564206d61676e697475646520726573747269637465642e604482015278102234b932b1ba1031b630b4b690383937b434b134ba32b21760391b6064820152608490fd5b6001146104755760405162461bcd60e51b8152600481018590526034818501527f53746174696320616e616c79736973206572726f723a204f726465722073796e60448201527331b43937b734bd30ba34b7b7103330b4b632b21760611b6064820152608490fd5b90508481813d8311610712575b6106ff8183610c1a565b8101031261070e57515f61045b565b5f80fd5b503d6106f5565b6040513d88823e3d90fd5b60405162461bcd60e51b8152600481018690526032818601527f44696d656e73696f6e616c2050617261646f783a2053696e67756c61726974796044820152711037baba1037b3103932b9b7b730b731b29760711b6064820152608490fd5b508581813d83116107aa575b6107998183610c1a565b8101031261070e5760429051610428565b503d61078f565b6040513d89823e3d90fd5b82819392503d83116107f1575b6107d38183610c1a565b810103126107ed575181811681036107ed5786905f610404565b8780fd5b503d6107c9565b6040513d8a823e3d90fd5b50346100e65760203660031901126100e657600435610823818354610c51565b82556040519081527fb2392ead53531e030e8194abf813cca07ba271e208ef94473180908e01188d9a60203392a280f35b50346100e657806003193601126100e65780806001815b600582106108be5784831561087d5780f35b60405162461bcd60e51b8152602060048201526019602482015278145d585b9d1d5b4810dbdb1b185c1cd94811195d1958dd1959603a1b6044820152606490fd5b849285948692821580610b4f575b156001166108e8575b505050600190939291019092919261086b565b9195509350600191506401000003d019808680095f516020610c935f395f51905f52096401000003d01983830914610b1e575b6401000003d01980808484096401000003d01990810390808980095f516020610c935f395f51905f5209086401000003d01980808686096401000003d01990810390808b80095f516020610c935f395f51905f520908600409096401000003d01980808381878709096002096401000003d01990810390808481808989096401000003d01990810390808e80095f516020610c935f395f51905f520908096401000003d019908103908080898c096401000003d01990810390808e8181800990095f516020610c735f395f51905f5209086401000003d019808a8d096401000003d01990810390808f8181800990095f516020610c735f395f51905f520908090808946401000003d0199182808281808989096401000003d01990810390808e80095f516020610c935f395f51905f520908096401000003d01980888609600209096401000003d0199081039290918290898203908290818a8a090908906401000003d0199081908890096401000003d0199081039080808d80098d095f516020610c735f395f51905f5209080908946401000003d019838208906401000003d019926401000003d01990856401000003d01991096401000003d01990810390808480095f516020610c935f395f51905f520908916401000003d019916401000003d119918391829080096401000003d019908103918009080809905f806108d5565b6401000003d019808087800987095f516020610c735f395f51905f52096401000003d0198386091461091b5761091b565b5f516020610c735f395f51905f5297505f516020610c935f395f51905f529650600194506108cc565b503461070e57602036600319011261070e577f00000000000000000000000000000000000000000000000000000000000000006001600160a01b0316803b1561070e575f80916024604051809481936361ca25a760e11b835260043560048401525af18015610bf557610be9575080f35b61001a91505f90610c1a565b6040513d5f823e3d90fd5b3461070e575f36600319011261070e576020906001548152f35b601f909101601f19168101906001600160401b03821190821017610c3d57604052565b634e487b7160e01b5f52604160045260245ffd5b91908201809211610c5e57565b634e487b7160e01b5f52601160045260245ffdfe483ada7726a3c4655da4fbfc0e1108a8fd17b448a68554199c47d08ffb10d4b879be667ef9dcbbac55a06295ce870b07029bfcdb2dce28d959f2815b16f81798a2646970667358221220a194805e608524748c138aed4a6d3e1590bcf9fb4db60d943015a305c763ce3364736f6c634300081e0033","linkReferences":{}},"methodIdentifiers":{"PLAYER()":"0236ca74","isSolved()":"64d98f6e","relayer()":"8406c079","singularity()":"a5dca464","singularityNode()":"d84d6a9f","vault()":"fbfa77cf"},"id":4}