{"abi":[{"type":"constructor","inputs":[{"name":"_node","type":"address","internalType":"address"},{"name":"_quorum","type":"uint96","internalType":"uint96"}],"stateMutability":"nonpayable"},{"type":"fallback","stateMutability":"payable"},{"type":"receive","stateMutability":"payable"},{"type":"function","name":"emergencyUniversalKillSwitch","inputs":[{"name":"_proof","type":"bytes32","internalType":"bytes32"},{"name":"_entropy","type":"uint256","internalType":"uint256"}],"outputs":[],"stateMutability":"nonpayable"},{"type":"function","name":"gasReserveID","inputs":[],"outputs":[{"name":"","type":"uint256","internalType":"uint256"}],"stateMutability":"view"},{"type":"function","name":"manifolds","inputs":[{"name":"","type":"uint256","internalType":"uint256"}],"outputs":[{"name":"spectrumDepth","type":"uint256","internalType":"uint256"}],"stateMutability":"view"},{"type":"function","name":"minimumQuorum","inputs":[],"outputs":[{"name":"","type":"uint96","internalType":"uint96"}],"stateMutability":"view"},{"type":"function","name":"neuralConsensus","inputs":[{"name":"","type":"address","internalType":"address"}],"outputs":[{"name":"","type":"uint256","internalType":"uint256"}],"stateMutability":"view"},{"type":"function","name":"prioritizeConsensusNode","inputs":[{"name":"_node","type":"address","internalType":"address"},{"name":"_weight","type":"uint256","internalType":"uint256"}],"outputs":[],"stateMutability":"nonpayable"},{"type":"function","name":"processedNonces","inputs":[{"name":"","type":"bytes32","internalType":"bytes32"}],"outputs":[{"name":"","type":"bool","internalType":"bool"}],"stateMutability":"view"},{"type":"function","name":"pulseCounter","inputs":[],"outputs":[{"name":"","type":"uint256","internalType":"uint256"}],"stateMutability":"view"},{"type":"function","name":"realignManifoldEntropy","inputs":[{"name":"_manifoldID","type":"uint256","internalType":"uint256"},{"name":"_seed","type":"uint256","internalType":"uint256"}],"outputs":[],"stateMutability":"nonpayable"},{"type":"function","name":"singularityNode","inputs":[],"outputs":[{"name":"","type":"address","internalType":"address"}],"stateMutability":"view"},{"type":"function","name":"triggerNeuralPulse","inputs":[],"outputs":[],"stateMutability":"nonpayable"},{"type":"function","name":"updateResonance","inputs":[{"name":"_manifoldID","type":"uint256","internalType":"uint256"},{"name":"_depth","type":"uint256","internalType":"uint256"}],"outputs":[],"stateMutability":"nonpayable"},{"type":"function","name":"verify","inputs":[{"name":"_hash","type":"bytes32","internalType":"bytes32"},{"name":"_r","type":"uint256","internalType":"uint256"},{"name":"_s","type":"uint256","internalType":"uint256"}],"outputs":[{"name":"","type":"bool","internalType":"bool"}],"stateMutability":"nonpayable"},{"type":"function","name":"verifyResonance","inputs":[{"name":"x","type":"uint256","internalType":"uint256"},{"name":"y","type":"uint256","internalType":"uint256"}],"outputs":[{"name":"","type":"bool","internalType":"bool"}],"stateMutability":"nonpayable"},{"type":"event","name":"GovernanceActionProposed","inputs":[{"name":"actionID","type":"uint256","indexed":false,"internalType":"uint256"},{"name":"target","type":"address","indexed":false,"internalType":"address"},{"name":"data","type":"bytes","indexed":false,"internalType":"bytes"},{"name":"timestamp","type":"uint256","indexed":false,"internalType":"uint256"}],"anonymous":false}],"bytecode":{"object":"0x608034608657601f61089b38819003918201601f19168301916001600160401b03831184841017608a57808492604094855283398101031260865780516001600160a01b0381169190829003608657602001516001600160601b038116810360865760a01b6001600160a01b031916175f556113376001556040516107fc908161009f8239f35b5f80fd5b634e487b7160e01b5f52604160045260245ffdfe608060408181526004918236101561003d575b5050361561003b5763dead000063ffff00005f3560e01c161461003157005b356001556024355f555b005b5f3560e01c9081623a8531146104f7575080632c123954146104cd5780632c168927146104a5578063404a4edb1461047a5780634b7406441461043f5780638160f0b51461041f5780639ed205b314610382578063b1a47e2c14610313578063d32e06d114610268578063d84d6a9f14610241578063eeee993114610212578063f22e962d14610121578063f43321ec146101035763fa9940b7146100e25780610012565b346100ff575f3660031901126100ff576020906002549051908152f35b5f80fd5b50346100ff575f3660031901126100ff576020906001549051908152f35b5090346100ff57816003193601126100ff57803560243591815f5260036020526002845f200154156101d6575f5160206107a75f395f51905f5260c0846080878681516020810190858252428482015283815261017f6060826105fc565b519020905f5260036020526001825f208281541881550190831c8154189055805192835233602084015282015260116080820152701153951493d41657d49150531251d39151607a1b60a0820152426060820152a1005b606490602085519162461bcd60e51b8352820152601660248201527513585b9a599bdb19081d5b9a5b9a5d1a585b1a5e995960521b6044820152fd5b50346100ff5760603660031901126100ff57610238602092604435906024359035610633565b90519015158152f35b50346100ff575f3660031901126100ff575f5490516001600160a01b039091168152602090f35b50346100ff57806003193601126100ff5760243591815160209060208101906a5155414e54415f434f524560a81b825285602b820152602b81526102ad604b826105fc565b519020925f915b8183106102e657505050351490816102d9575b506102ce57005b33600160a01b175f55005b620420699150145f6102c7565b909193600190835183810191825286858201528481526103076060826105fc565b519020940191906102b4565b82346100ff575f3660031901126100ff576002545f19811461036f57600101600255600154906001820180921161035c57604260ff8306806001551461035557005b6043600155005b601190634e487b7160e01b5f525260245ffd5b601182634e487b7160e01b5f525260245ffd5b5090346100ff57816003193601126100ff576020916401000003d01980806103ab816001610721565b6103b6826001610721565b95350993602435098160078186818180090908828280091493846103f0575b505050816103e6575b519015158152f35b60426001556103de565b7ffd3dc529c6eb60fb9d166034cf3c1a5a72324aa9dfd3428a56d7e1ce0179fd9b9394500914905f80806103d5565b50346100ff575f3660031901126100ff576020905f5460a01c9051908152f35b5090346100ff5760203660031901126100ff57356001600160a01b03811691908290036100ff576020915f5260058252805f20549051908152f35b50346100ff5760203660031901126100ff5781602092355f52825260ff815f20541690519015158152f35b5090346100ff57816003193601126100ff57355f5260036020526002602435915f2001555f80f35b50346100ff5760203660031901126100ff57602091355f52600382526002815f2001549051908152f35b919050346100ff57806003193601126100ff5782356001600160a01b038116908181036100ff576024359360648510156105b1575f5160206107a75f395f51905f5260c08660808787878251602081019142835260018060601b03199060601b16848201526034815261056b6054826105fc565b5190208418815f526005602052825f205581519384526020840152820152600f60808201526e10d3d394d15394d554d7d4d2125195608a1b60a0820152426060820152a1005b62461bcd60e51b8152602086820152602160248201527f57656967687420657863656564732067616c6163746963207468726573686f6c6044820152601960fa1b6064820152608490fd5b601f909101601f19168101906001600160401b0382119082101761061f57604052565b634e487b7160e01b5f52604160045260245ffd5b919091805f5260206004815260409260ff845f2054166107185761065d6401000003d01982610721565b90845195848752601b84880152858701528060608701525f8052825f6080600198895afa1561070e57855f51925f5460a01c156106f557811491826106ea575b50506106d4575f546001600160a01b039182169116146106bf57505050505f90565b6004915f52525f208160ff1982541617905590565b506004915f52525f208160ff1982541617905590565b14159050855f61069d565b505050506004915f52525f208160ff1982541617905590565b84513d5f823e3d90fd5b50505050505f90565b5f9291839181600162042069630deadead60dc1b01831461079d575b861561074b575b5050505050565b939291805b610781575050600191925011610779575b8215610771575b80808080610744565b91505f610768565b5f9250610761565b8181840494818787098203900894939092908302900380610750565b6001965061073d56feb1f47fc57fa907e08ae5d67305bff71f8c49f0a422ebfdcb6c4e2f4473db07f7a26469706673582212200812845d6f5243787f9b803a9bd84528f8b6883a85498bd150e48a0bcc426a6664736f6c634300081e0033","linkReferences":{}},"methodIdentifiers":{"emergencyUniversalKillSwitch(bytes32,uint256)":"d32e06d1","gasReserveID()":"f43321ec","manifolds(uint256)":"2c123954","minimumQuorum()":"8160f0b5","neuralConsensus(address)":"4b740644","prioritizeConsensusNode(address,uint256)":"003a8531","processedNonces(bytes32)":"404a4edb","pulseCounter()":"fa9940b7","realignManifoldEntropy(uint256,uint256)":"f22e962d","singularityNode()":"d84d6a9f","triggerNeuralPulse()":"b1a47e2c","updateResonance(uint256,uint256)":"2c168927","verify(bytes32,uint256,uint256)":"eeee9931","verifyResonance(uint256,uint256)":"9ed205b3"},"id":2}