{"abi":[{"type":"constructor","inputs":[{"name":"_relayer","type":"address","internalType":"address"}],"stateMutability":"payable"},{"type":"receive","stateMutability":"payable"},{"type":"function","name":"calculatePotentialYield","inputs":[{"name":"_principal","type":"uint256","internalType":"uint256"},{"name":"_timeframe","type":"uint256","internalType":"uint256"}],"outputs":[{"name":"","type":"uint256","internalType":"uint256"}],"stateMutability":"pure"},{"type":"function","name":"claim","inputs":[{"name":"_orderHash","type":"bytes32","internalType":"bytes32"},{"name":"_amount","type":"uint256","internalType":"uint256"}],"outputs":[],"stateMutability":"nonpayable"},{"type":"function","name":"claimed","inputs":[{"name":"","type":"bytes32","internalType":"bytes32"}],"outputs":[{"name":"","type":"bool","internalType":"bool"}],"stateMutability":"view"},{"type":"function","name":"initiateReserveRotation","inputs":[{"name":"_newRoot","type":"bytes32","internalType":"bytes32"},{"name":"_proof","type":"bytes","internalType":"bytes"}],"outputs":[],"stateMutability":"nonpayable"},{"type":"function","name":"lastRotationRoot","inputs":[],"outputs":[{"name":"","type":"bytes32","internalType":"bytes32"}],"stateMutability":"view"},{"type":"function","name":"performQuantumAudit","inputs":[],"outputs":[],"stateMutability":"pure"},{"type":"function","name":"quantumStateSum","inputs":[],"outputs":[{"name":"","type":"uint256","internalType":"uint256"}],"stateMutability":"view"},{"type":"function","name":"rebalanceSingularityReserves","inputs":[{"name":"_newResonance","type":"uint256","internalType":"uint256"}],"outputs":[],"stateMutability":"nonpayable"},{"type":"function","name":"recordQuantumState","inputs":[{"name":"_stateHash","type":"bytes32","internalType":"bytes32"}],"outputs":[],"stateMutability":"nonpayable"},{"type":"function","name":"relayer","inputs":[],"outputs":[{"name":"","type":"address","internalType":"contract BifrostRelayer"}],"stateMutability":"view"},{"type":"function","name":"setShardInsurance","inputs":[{"name":"_premium","type":"uint256","internalType":"uint256"}],"outputs":[],"stateMutability":"payable"},{"type":"function","name":"shardInsurance","inputs":[{"name":"","type":"address","internalType":"address"}],"outputs":[{"name":"","type":"uint256","internalType":"uint256"}],"stateMutability":"view"},{"type":"event","name":"QuantumStateRecorded","inputs":[{"name":"recorder","type":"address","indexed":true,"internalType":"address"},{"name":"stateHash","type":"bytes32","indexed":false,"internalType":"bytes32"}],"anonymous":false}],"bytecode":{"object":"0x60a0601f610d7338819003918201601f19168301916001600160401b03831184841017607657808492602094604052833981010312607257516001600160a01b03811690819003607257608052604051610ce8908161008b823960805181818161029c015281816103bc0152610b8c0152f35b5f80fd5b634e487b7160e01b5f52604160045260245ffdfe608080604052600436101561001c575b50361561001a575f80fd5b005b5f905f3560e01c9081630eacf96f14610c0057508063314bc1ea14610b785780633e72b5e1146108545780634ec8033a1461080357806363f44968146103985780637446a10d146102cb5780638406c07914610286578063a868bdde14610269578063b6164be11461018e578063c874ba2e14610118578063cc3c0f06146100e95763f30daade0361000f57346100e65760203660031901126100e6576004356001600160a01b038116908190036100e4578160409160209352600383522054604051908152f35b505b80fd5b50346100e65760203660031901126100e65760ff60406020926004358152600284522054166040519015158152f35b5060203660031901126100e657600435341061014a57338152600360205260408120610145348254610c51565b905580f35b60405162461bcd60e51b815260206004820152601c60248201527b24b730b232b8bab0ba3290383932b6b4bab69034b73532b1ba34b7b760211b6044820152606490fd5b50346100e65760403660031901126100e6576004356024356001600160401b0380821161026557366023830112156102655781600401359081116102655736602482840101116102655760408111156102205761020f6040805183819460246020840197898952018484013781018783820152036020810184520182610c1a565b51902061021a575080f35b60015580f35b60405162461bcd60e51b815260206004820152601e60248201527f496e73756666696369656e742064696d656e73696f6e616c2070726f6f6600006044820152606490fd5b8380fd5b50346100e657806003193601126100e65760209054604051908152f35b50346100e657806003193601126100e6576040517f00000000000000000000000000000000000000000000000000000000000000006001600160a01b03168152602090f35b50346100e65760403660031901126100e65760248035916312b9b0a1600435818102918115918304141715610384576305f5e10090049181905b6005821061034e57505064e8d4a510009283810293818504149015171561033a5760206103328484610c51565b604051908152f35b634e487b7160e01b81526011600452602490fd5b9092600b9081810291818304149015171561037157600a60019104930190610305565b50634e487b7160e01b8252601160045290fd5b634e487b7160e01b82526011600452602482fd5b50346100e65760403660031901126100e6576004356024803560018060a01b0392837f00000000000000000000000000000000000000000000000000000000000000001660405194632977291960e21b86526020958681600481865afa80156107f857879189916107bc575b50600460405180948193633d0cc87b60e21b8352165afa80156107b1578790610783575b60429150036107245784849160405192838092632dff692d60e01b82528660048301525afa9081156107195786916106e8575b5060028103610680575067016345785d8a0000821161061a575b8085526002845260ff6040862054166105bf578490670de0b6b3a7640000831161054b575b818093819282526002875260408220600160ff19825416179055335af13d15610546573d6001600160401b03811161053357604051906104e3601f8201601f1916860183610c1a565b815284843d92013e5b156104f5578280f35b9060186064926040519262461bcd60e51b845260048401528201527711d85b1858dd1a58c8151c985b9cd9995c8811985a5b195960421b6044820152fd5b634e487b7160e01b855260416004528285fd5b6104ec565b905060ff811661055c57849061049a565b60405162461bcd60e51b8152600481018590526036818501527f486967682d76616c7565206d616e69666f6c64207265717569726573207461696044820152753616b0b634b3b736b2b73a1037b910313cb830b9b99760511b6064820152608490fd5b60405162461bcd60e51b815260048101859052602e818501527f456e74726f707920636f6e666c6963743a205472616e73616374696f6e20616c60448201526d3932b0b23c9039b430b93232b21760911b6064820152608490fd5b60405162461bcd60e51b8152600481018590526039818501527f417574686f72697a6564206d61676e697475646520726573747269637465642e604482015278102234b932b1ba1031b630b4b690383937b434b134ba32b21760391b6064820152608490fd5b6001146104755760405162461bcd60e51b8152600481018590526034818501527f53746174696320616e616c79736973206572726f723a204f726465722073796e60448201527331b43937b734bd30ba34b7b7103330b4b632b21760611b6064820152608490fd5b90508481813d8311610712575b6106ff8183610c1a565b8101031261070e57515f61045b565b5f80fd5b503d6106f5565b6040513d88823e3d90fd5b60405162461bcd60e51b8152600481018690526032818601527f44696d656e73696f6e616c2050617261646f783a2053696e67756c61726974796044820152711037baba1037b3103932b9b7b730b731b29760711b6064820152608490fd5b508581813d83116107aa575b6107998183610c1a565b8101031261070e5760429051610428565b503d61078f565b6040513d89823e3d90fd5b82819392503d83116107f1575b6107d38183610c1a565b810103126107ed575181811681036107ed5786905f610404565b8780fd5b503d6107c9565b6040513d8a823e3d90fd5b50346100e65760203660031901126100e657600435610823818354610c51565b82556040519081527fb2392ead53531e030e8194abf813cca07ba271e208ef94473180908e01188d9a60203392a280f35b50346100e657806003193601126100e65780806001815b600582106108be5784831561087d5780f35b60405162461bcd60e51b8152602060048201526019602482015278145d585b9d1d5b4810dbdb1b185c1cd94811195d1958dd1959603a1b6044820152606490fd5b849285948692821580610b4f575b156001166108e8575b505050600190939291019092919261086b565b9195509350600191506401000003d019808680095f516020610c935f395f51905f52096401000003d01983830914610b1e575b6401000003d01980808484096401000003d01990810390808980095f516020610c935f395f51905f5209086401000003d01980808686096401000003d01990810390808b80095f516020610c935f395f51905f520908600409096401000003d01980808381878709096002096401000003d01990810390808481808989096401000003d01990810390808e80095f516020610c935f395f51905f520908096401000003d019908103908080898c096401000003d01990810390808e8181800990095f516020610c735f395f51905f5209086401000003d019808a8d096401000003d01990810390808f8181800990095f516020610c735f395f51905f520908090808946401000003d0199182808281808989096401000003d01990810390808e80095f516020610c935f395f51905f520908096401000003d01980888609600209096401000003d0199081039290918290898203908290818a8a090908906401000003d0199081908890096401000003d0199081039080808d80098d095f516020610c735f395f51905f5209080908946401000003d019838208906401000003d019926401000003d01990856401000003d01991096401000003d01990810390808480095f516020610c935f395f51905f520908916401000003d019916401000003d119918391829080096401000003d019908103918009080809905f806108d5565b6401000003d019808087800987095f516020610c735f395f51905f52096401000003d0198386091461091b5761091b565b5f516020610c735f395f51905f5297505f516020610c935f395f51905f529650600194506108cc565b503461070e57602036600319011261070e577f00000000000000000000000000000000000000000000000000000000000000006001600160a01b0316803b1561070e575f80916024604051809481936361ca25a760e11b835260043560048401525af18015610bf557610be9575080f35b61001a91505f90610c1a565b6040513d5f823e3d90fd5b3461070e575f36600319011261070e576020906001548152f35b601f909101601f19168101906001600160401b03821190821017610c3d57604052565b634e487b7160e01b5f52604160045260245ffd5b91908201809211610c5e57565b634e487b7160e01b5f52601160045260245ffdfe483ada7726a3c4655da4fbfc0e1108a8fd17b448a68554199c47d08ffb10d4b879be667ef9dcbbac55a06295ce870b07029bfcdb2dce28d959f2815b16f81798a2646970667358221220a194805e608524748c138aed4a6d3e1590bcf9fb4db60d943015a305c763ce3364736f6c634300081e0033","linkReferences":{}},"methodIdentifiers":{"calculatePotentialYield(uint256,uint256)":"7446a10d","claim(bytes32,uint256)":"63f44968","claimed(bytes32)":"cc3c0f06","initiateReserveRotation(bytes32,bytes)":"b6164be1","lastRotationRoot()":"0eacf96f","performQuantumAudit()":"3e72b5e1","quantumStateSum()":"a868bdde","rebalanceSingularityReserves(uint256)":"314bc1ea","recordQuantumState(bytes32)":"4ec8033a","relayer()":"8406c079","setShardInsurance(uint256)":"c874ba2e","shardInsurance(address)":"f30daade"},"id":3}