{"abi":[{"type":"constructor","inputs":[{"name":"_singularity","type":"address","internalType":"address"}],"stateMutability":"nonpayable"},{"type":"function","name":"adjustSpectralInflation","inputs":[{"name":"_newRate","type":"uint256","internalType":"uint256"}],"outputs":[],"stateMutability":"nonpayable"},{"type":"function","name":"aggregateRewards","inputs":[{"name":"_miner","type":"address","internalType":"address"}],"outputs":[{"name":"","type":"uint256","internalType":"uint256"}],"stateMutability":"view"},{"type":"function","name":"claimDimensionalFee","inputs":[{"name":"_miner","type":"address","internalType":"address"}],"outputs":[],"stateMutability":"nonpayable"},{"type":"function","name":"dimensionalRewards","inputs":[{"name":"","type":"address","internalType":"address"}],"outputs":[{"name":"","type":"uint256","internalType":"uint256"}],"stateMutability":"view"},{"type":"function","name":"donateEntropy","inputs":[],"outputs":[],"stateMutability":"payable"},{"type":"function","name":"lastInflationSync","inputs":[{"name":"","type":"address","internalType":"address"}],"outputs":[{"name":"","type":"uint256","internalType":"uint256"}],"stateMutability":"view"},{"type":"function","name":"modulateDimensionalResonance","inputs":[{"name":"_newPrecision","type":"uint256","internalType":"uint256"}],"outputs":[],"stateMutability":"nonpayable"},{"type":"function","name":"orderStatus","inputs":[{"name":"","type":"bytes32","internalType":"bytes32"}],"outputs":[{"name":"","type":"uint256","internalType":"uint256"}],"stateMutability":"view"},{"type":"function","name":"processOrder","inputs":[{"name":"_orderHash","type":"bytes32","internalType":"bytes32"},{"name":"_r","type":"uint256","internalType":"uint256"},{"name":"_s","type":"uint256","internalType":"uint256"},{"name":"_callback","type":"address","internalType":"address"}],"outputs":[],"stateMutability":"nonpayable"},{"type":"function","name":"purgeUnstableOrder","inputs":[{"name":"_orderHash","type":"bytes32","internalType":"bytes32"},{"name":"_proof","type":"bytes32","internalType":"bytes32"}],"outputs":[],"stateMutability":"nonpayable"},{"type":"function","name":"resonanceSnapshots","inputs":[{"name":"","type":"address","internalType":"address"},{"name":"","type":"bytes32","internalType":"bytes32"}],"outputs":[{"name":"","type":"uint256","internalType":"uint256"}],"stateMutability":"view"},{"type":"function","name":"rewardPrecision","inputs":[],"outputs":[{"name":"","type":"uint256","internalType":"uint256"}],"stateMutability":"view"},{"type":"function","name":"setVault","inputs":[{"name":"_vault","type":"address","internalType":"address"}],"outputs":[],"stateMutability":"nonpayable"},{"type":"function","name":"singularity","inputs":[],"outputs":[{"name":"","type":"address","internalType":"contract BifrostSingularity"}],"stateMutability":"view"},{"type":"function","name":"spectralInflationRate","inputs":[],"outputs":[{"name":"","type":"uint256","internalType":"uint256"}],"stateMutability":"view"},{"type":"function","name":"storeResonanceSnapshot","inputs":[{"name":"_key","type":"bytes32","internalType":"bytes32"},{"name":"_value","type":"uint256","internalType":"uint256"}],"outputs":[],"stateMutability":"nonpayable"},{"type":"function","name":"syncSingularityMetrics","inputs":[{"name":"_selector","type":"bytes4","internalType":"bytes4"},{"name":"_p1","type":"uint256","internalType":"uint256"},{"name":"_p2","type":"uint256","internalType":"uint256"}],"outputs":[],"stateMutability":"nonpayable"},{"type":"function","name":"vault","inputs":[],"outputs":[{"name":"","type":"address","internalType":"address"}],"stateMutability":"view"},{"type":"event","name":"EntropyInjected","inputs":[{"name":"injector","type":"address","indexed":true,"internalType":"address"},{"name":"amount","type":"uint256","indexed":false,"internalType":"uint256"}],"anonymous":false},{"type":"event","name":"OrderProcessed","inputs":[{"name":"orderHash","type":"bytes32","indexed":true,"internalType":"bytes32"},{"name":"status","type":"uint256","indexed":false,"internalType":"uint256"}],"anonymous":false},{"type":"event","name":"RewardAccrued","inputs":[{"name":"miner","type":"address","indexed":true,"internalType":"address"},{"name":"amount","type":"uint256","indexed":false,"internalType":"uint256"}],"anonymous":false}],"bytecode":{"object":"0x60a03461009357601f6110c238819003918201601f19168301916001600160401b038311848410176100975780849260209460405283398101031261009357516001600160a01b0381169081900361009357670de0b6b3a764000060015561053960025560805260405161101690816100ac82396080518181816101b2015281816104ab015281816106d201526107100152f35b5f80fd5b634e487b7160e01b5f52604160045260245ffdfe60806040526004361015610011575f80fd5b5f3560e01c80630622fd5d1461013457806311c14bd51461012f578063172cea4b1461012a5780632dff692d146101255780635602085b1461012057806356bf49db1461011b5780635795536a146101165780635bae9619146101115780636817031b1461010c5780636fcdb877146101075780639eb62cf014610102578063a5dca464146100fd578063b056109b146100f8578063b6d6c6e9146100f3578063ba092c7d146100ee578063c3944b4e146100e9578063e2c81737146100e45763fbfa77cf146100df575f80fd5b610925565b6108f4565b61088a565b610825565b6107ea565b61073f565b6106fb565b61068b565b6105e3565b610567565b61054a565b61052d565b61047d565b610436565b61040c565b6103c4565b61017d565b61014e565b6001600160a01b0381160361014a57565b5f80fd5b3461014a57602036600319011261014a57602061017560043561017081610139565b6109ab565b604051908152f35b3461014a57608036600319011261014a57600480359060643561019f81610139565b604051638160f0b560e01b8152602092907f00000000000000000000000000000000000000000000000000000000000000006001600160a01b03169084818481855afa801561037d57610203915f91610382575b506001600160601b031615610d08565b61021761021086846103ff565b5415610d6e565b83604051809263eeee993160e01b8252815f8161024d6044356024358d8b85016040919493926060820195825260208201520152565b03925af191821561037d575f516020610fc15f395f51905f52946102d3946102c29488945f91610350575b50156102d8575050600261028c83836103ff565b555b6102a56105396102a060015442610e78565b610e90565b6102bb6102b33360056103af565b918254610e9a565b90556103ff565b546040519081529081906020820190565b0390a2005b60026102e485856103ff565b54036102f2575b505061028e565b5f809161034993600161030588886103ff565b556040516386ed759d60e01b91810191825260248101889052839061033781604481015b03601f198101835282610960565b51925af1610343610dde565b50610e1c565b5f806102eb565b6103709150833d8511610376575b6103688183610960565b810190610dc6565b5f610278565b503d61035e565b610cfd565b6103a29150863d88116103a8575b61039a8183610960565b810190610cde565b5f6101f3565b503d610390565b9060018060a01b03165f5260205260405f2090565b3461014a57602036600319011261014a576004356103e181610139565b60018060a01b03165f526006602052602060405f2054604051908152f35b905f5260205260405f2090565b3461014a57602036600319011261014a576004355f526004602052602060405f2054604051908152f35b3461014a57604036600319011261014a5760043561045381610139565b60018060a01b03165f52600360205260405f206024355f52602052602060405f2054604051908152f35b3461014a57602036600319011261014a5760405163d84d6a9f60e01b81526001600160a01b036020826004817f000000000000000000000000000000000000000000000000000000000000000085165afa801561037d575f906104f0575b6104e89250163314610ea7565b600435600255005b506020823d602011610525575b8161050a60209383610960565b8101031261014a576104e8915161052081610139565b6104db565b3d91506104fd565b3461014a575f36600319011261014a576020600254604051908152f35b3461014a575f36600319011261014a576020600154604051908152f35b3461014a57602036600319011261014a5760043561058481610139565b5f54906001600160a01b03908183166105aa576001600160a01b03199092169116175f55005b60405162461bcd60e51b815260206004820152601160248201527015985d5b1d08185b1c9958591e481cd95d607a1b6044820152606490fd5b3461014a57602036600319011261014a5760043561060081610139565b6001600160a01b0381165f9081526005602052604090205460015410156106345761063160025443189160066103af565b55005b60405162461bcd60e51b815260206004820152602960248201527f496e73756666696369656e74207265736f6e616e636520666f7220666565206360448201526837b63632b1ba34b7b760b91b6064820152608490fd5b3461014a57606036600319011261014a576004356001600160e01b03198116810361014a5763ffff0000165f526024356004526044356024525f8060448160018060a01b037f0000000000000000000000000000000000000000000000000000000000000000165af41561014a57005b3461014a575f36600319011261014a576040517f00000000000000000000000000000000000000000000000000000000000000006001600160a01b03168152602090f35b3461014a57604036600319011261014a57600435805f526004602052600160405f2054036107aa5761077e61077861053960243561099c565b15610ef1565b5f61078a8260046103ff565b556040515f81525f516020610fc15f395f51905f529080602081016102d3565b60405162461bcd60e51b815260206004820152601860248201527709ee4c8cae440e6e8c2c4d2d8d2e8f240e8dede40d0d2ced60431b6044820152606490fd5b3461014a57602036600319011261014a5760043561080781610139565b60018060a01b03165f526005602052602060405f2054604051908152f35b5f36600319011261014a573415610845575f808080348180f11561037d57005b60405162461bcd60e51b815260206004820152601e60248201527f566f69642072656a656374696f6e3a20456d70747920646f6e6174696f6e00006044820152606490fd5b3461014a57602036600319011261014a575f546001600160a01b031633036108b457600435600155005b60405162461bcd60e51b815260206004820152601860248201527715985d5b1d08185d5d1a1bdc9a5d1e481c995c5d5a5c995960421b6044820152606490fd5b3461014a57604036600319011261014a57335f52600360205260405f206004355f5260205260243560405f20555f80f35b3461014a575f36600319011261014a575f546040516001600160a01b039091168152602090f35b634e487b7160e01b5f52604160045260245ffd5b601f909101601f19168101906001600160401b0382119082101761098357604052565b61094c565b634e487b7160e01b5f52601260045260245ffd5b81156109a6570690565b610988565b6001600160a01b0381165f908152600560205260409020548015610cd8575f91908290817f79be667ef9dcbbac55a06295ce870b07029bfcdb2dce28d959f2815b16f8179860017f483ada7726a3c4655da4fbfc0e1108a8fd17b448a68554199c47d08ffb10d4b8845b610a57575050505050506064610a5391604051610a4b8161032960208201948560149160018060601b03199060601b1681520190565b51902061099c565b1890565b600180861614610a83575b610a75926401000003d019929190610f35565b60019490941c939084610a15565b965f949385939291849190881580610cc8575b841580610cb7575b15901516610ab9575b50939890965093949391925090610a62565b95965094610a75945090506401000003d019808089800989098a096401000003d0198089800985096401000003d01980858009840914610c9c575b6401000003d01980808086800985096401000003d01990810390808c80098809086401000003d01980808088800987096401000003d01990810390808e80098a090860040909956401000003d01980808981808980098809096002096401000003d01990810390808a818e81808c80098b096401000003d01990810391819080098d0908096401000003d01990810390808080808c80098c0988096401000003d0190388086401000003d0198080808d80098d0989096401000003d019038908090808966401000003d01992838083818e81808c80098b096401000003d01990810391819080098d0908096401000003d0198080808b80098b098709600209096401000003d01990810393909283908b820390829081808c80098b090908916401000003d01991829081808b80098b0990096401000003d0190390080908966401000003d0198382086401000003d01992909190839081908187800990096401000003d0199081039080848009880908916401000003d01991828680096401000003d019908103929091829080096401000003d019908103918009080809869594935f610aa7565b806401000003d01980808680098609880914610af457610af4565b935097508095509481978993610a9e565b8b98509495508594849350610a96565b50505f90565b9081602091031261014a57516001600160601b038116810361014a5790565b6040513d5f823e3d90fd5b15610d0f57565b60405162461bcd60e51b815260206004820152603160248201527f44696d656e73696f6e616c2073746162696c69747920746f6f20686967682e2060448201527022b937b9b4b7b7103932b8bab4b932b21760791b6064820152608490fd5b15610d7557565b60405162461bcd60e51b8152602060048201526024808201527f50617261646f7820636f6c6c6973696f6e3a204f7264657220696e2070726f676044820152637265737360e01b6064820152608490fd5b9081602091031261014a5751801515810361014a5790565b3d15610e17573d906001600160401b0382116109835760405191610e0c601f8201601f191660200184610960565b82523d5f602084013e565b606090565b15610e2357565b60405162461bcd60e51b815260206004820152601960248201527821b0b6363130b1b5903932b532b1ba32b210313c903832b2b960391b6044820152606490fd5b634e487b7160e01b5f52601160045260245ffd5b81810292918115918404141715610e8b57565b610e64565b81156109a6570490565b91908201809211610e8b57565b15610eae57565b60405162461bcd60e51b815260206004820152601b60248201527a155b985d5d1a1bdc9a5e99590814dc1958dd1c985b0814da1a599d602a1b6044820152606490fd5b15610ef857565b60405162461bcd60e51b815260206004820152601560248201527424b73b30b634b21032b73a3937b83c90383937b7b360591b6044820152606490fd5b9390935f945f945f94801580610fb2575b15610f52575b50505050565b9195508296508080949550838194098180808080808c8009818180099d08818d810391818881039180090808600209926003098180808086600209810381858009089b6008098103938b820390089009089409600209905f808080610f4c565b5f9850889750879650610f4656fe5036c79f012f84d991100e11f09ed6fa90da778b05e6bd5a818479a26c64d753a26469706673582212209b0a77ebc34acfc376ed0aee9dfbd89fdf473d9f8a1abb952ec5c9609c3caad564736f6c634300081e0033","linkReferences":{}},"methodIdentifiers":{"adjustSpectralInflation(uint256)":"56bf49db","aggregateRewards(address)":"0622fd5d","claimDimensionalFee(address)":"6fcdb877","dimensionalRewards(address)":"b6d6c6e9","donateEntropy()":"ba092c7d","lastInflationSync(address)":"172cea4b","modulateDimensionalResonance(uint256)":"c3944b4e","orderStatus(bytes32)":"2dff692d","processOrder(bytes32,uint256,uint256,address)":"11c14bd5","purgeUnstableOrder(bytes32,bytes32)":"b056109b","resonanceSnapshots(address,bytes32)":"5602085b","rewardPrecision()":"5bae9619","setVault(address)":"6817031b","singularity()":"a5dca464","spectralInflationRate()":"5795536a","storeResonanceSnapshot(bytes32,uint256)":"e2c81737","syncSingularityMetrics(bytes4,uint256,uint256)":"9eb62cf0","vault()":"fbfa77cf"},"id":1}